:020000040800F2
:1000000000000220F1080008250700082B0700085F
:1000100031070008370700083D070008000000000E
:10002000000000000000000000000000430700087E
:1000300051070008000000005F0700086D07000876
:100040004109000841090008410900084109000868
:100050004109000841090008410900084109000858
:100060004109000841090008410900084109000848
:100070004109000841090008410900084109000838
:100080004109000841090008410900084109000828
:100090004109000841090008410900084109000818
:1000A0004109000841090008410900084109000808
:1000B00041090008410900084109000841090008F8
:1000C00041090008410900084109000841090008E8
:1000D00041090008410900084109000841090008D8
:1000E0007907000841090008410900084109000892
:1000F00041090008410900084109000841090008B8
:1001000041090008410900084109000841090008A7
:100110004109000841090008410900084109000897
:100120004109000841090008410900084109000887
:100130004109000841090008410900084109000877
:100140004109000841090008410900084109000867
:100150004109000841090008410900084109000857
:100160004109000841090008410900084109000847
:100170004109000841090008410900084109000837
:100180004109000841090008410900084109000827
:100190004109000800000000410900084109000869
:1001A0004109000841090008410900084109000807
:1001B00041090008410900084109000841090008F7
:1001C00041090008410900084109000841090008E7
:0801D000410900084109000883
:1001D80010B5054C237833B9044B13B10448AFF379
:1001E80000800123237010BD0C00002000000000D7
:1001F800E82E000808B5034B1BB103490348AFF3C9
:10020800008008BD0000000010000020E82E000853
:1002180053B94AB9002908BF00281CBF4FF0FF3165
:100228004FF0FF3000F070B9ADF1080C6DE904CE65
:1002380000F006F8DDF804E0DDE9022304B07047B9
:100248002DE9F047089E0D4604460F46002B4AD17B
:100258008A42944665D9B2FA82F343B102FA03FCA2
:10026800C3F120029F4020FA02F217439C404FEA54
:100278001C4E1FFA8CF5B7FBFEF1220C0EFB117712
:1002880042EA074201FB05F090420AD91CEB020240
:1002980001F1FF3780F01C81904240F21981023948
:1002A8006244121AA4B2B2FBFEF00EFB102244EA1A
:1002B800024400FB05F5A5420AD91CEB040400F131
:1002C800FF3280F00781A54240F20481644402387D
:1002D80040EA0140641B00211EB1DC400023C6E94E
:1002E8000043BDE8F0878B4208D9002E00F0ED806E
:1002F8000021C6E900050846BDE8F087B3FA83F196
:10030800002949D1AB4202D3824200F2F880841A14
:1003180065EB030201201746002EE2D0C6E900472C
:10032800DFE702B9FFDEB2FA82F3002B40F09080DB
:100338008A1A4FEA1C471FFA8CFE0121B2FBF7F517
:1003480007FB1520220C42EA00420EFB05F0904202
:1003580008D91CEB020205F1FF3802D2904200F2E4
:10036800CB804546121AA4B2B2FBF7F007FB102265
:1003780044EA02440EFB00FEA64508D91CEB04041F
:1003880000F1FF3202D2A64500F2BB801046A4EB72
:100398000E0440EA05409FE7C1F120078B4022FA8E
:1003A80007FC4CEA030C05FA01F420FA07F3FD40B8
:1003B8004FEA1C492343B5FBF9F81FFA8CFE09FBE9
:1003C80018551C0C44EA054408FB0EF5A54202FA30
:1003D80001F200FA01F00BD91CEB040408F1FF3A12
:1003E80080F08880A54240F28580A8F10208644424
:1003F800641B9DB2B4FBF9F309FB134445EA0444BA
:1004080003FB0EFEA64508D91CEB040403F1FF35D7
:100418006CD2A6456AD9023B644443EA0843A3FB6D
:100428000295A4EB0E04AC42C846AE4656D353D050
:1004380056B1B0EB080264EB0E0404FA07F7CA40A1
:10044800CC401743C6E9007418460021BDE8F08780
:10045800C3F1200102FA03FC20FA01F225FA01F1A6
:100468009D402A434FEA1C471FFA8CFEB1FBF7F068
:1004780007FB1015110C41EA054100FB0EF58D42F2
:1004880004FA03F408D91CEB010100F1FF382FD25C
:100498008D422DD902386144491B92B2B1FBF7F560
:1004A80007FB151142EA014205FB0EF1914208D9FA
:1004B8001CEB020205F1FF3816D2914214D9023D15
:1004C8006244521A45EA004138E73146304608E7A7
:1004D8003946E6E61046FBE64845A9D2B9EB0208DC
:1004E80065EB0C0E013BA3E74546EAE72B4694E78C
:1004F8004046D1E7D0467BE7023D624432E70846F2
:100508000AE76444023842E7704700BF80B58AB002
:1005180000AF07F1140300221A605A609A60DA608B
:100528001A612F4BDB6C2E4A43F00403D3642C4B27
:10053800DB6C03F004033B613B69294BDB6C284A05
:1005480043F02003D364264BDB6C03F02003FB60ED
:10055800FB68234BDB6C224A43F00103D364204B36
:10056800DB6C03F00103BB60BB681D4BDB6C1C4AF2
:1005780043F00203D3641A4BDB6C03F002037B6085
:100588007B68002220214FF0904000F0FBFC4FF4E4
:1005980000537B614FF48813BB610023FB6107F1B3
:1005A800140319460F4800F06BFB20237B610123DD
:1005B800BB610023FB6100233B6207F1140319466A
:1005C8004FF0904000F05CFB00220021282000F052
:1005D80022FB282000F039FB00BF2837BD4680BD2C
:1005E800001002400008004880B582B000AF00F05B
:1005F800A4F900F01FF8FFF789FF00F0D3F80B4AC1
:100608003B4692E8030018600433198020214FF01C
:10061800904000F0CFFC4FF4FA7000F0FFF9394633
:1006280064230622024801F083FDE8E7002F000852
:100638002800002080B594B000AF07F118033822D5
:100648000021184602F020FC3B1D00221A605A6067
:100658009A60DA601A614FF4007000F0E9FC012337
:10066800BB614FF48033FB6102237B630323BB63CD
:100678000323FB6319233B6402237B640223BB64CB
:100688000223FB6407F11803184600F085FD0346B2
:10069800002B01D000F018F80F237B600323BB6008
:1006A8000023FB6000233B6100237B613B1D03218A
:1006B800184601F083F80346002B01D000F004F837
:1006C80000BF5037BD4680BD80B400AF72B600BFD2
:1006D800FEE7000080B582B000AF0F4B1B6E0E4ADC
:1006E80043F0010313660C4B1B6E03F001037B60A0
:1006F8007B68094B9B6D084A43F080539365064B12
:100708009B6D03F080533B603B6800F035FD00BFF4
:100718000837BD4680BD00BF0010024080B400AF5E
:10072800FEE780B400AFFEE780B400AFFEE780B418
:1007380000AFFEE780B400AFFEE780B400AF00BFB3
:10074800BD465DF8047B704780B400AF00BFBD466E
:100758005DF8047B704780B400AF00BFBD465DF80C
:10076800047B704780B500AF00F03AF900BF80BD48
:1007780080B500AF4FF4005000F036FC00BF80BDDC
:1007880080B400AF064BD3F88830054A43F47003B1
:10079800C2F8883000BFBD465DF8047B704700BFD3
:1007A80000ED00E080B500AF214B224A1A60204BD3
:1007B8004FF4E1325A601E4B00229A601C4B002213
:1007C800DA601B4B00221A61194B0C225A61184B34
:1007D80000229A61164B00221A62154B00225A62B7
:1007E800134B00229A62124801F052FC0346002B78
:1007F80001D0FFF769FF00210D4802F07BFA03469C
:10080800002B01D0FFF760FF0021094802F0B0FA81
:100818000346002B01D0FFF757FF054802F031FAD5
:100828000346002B01D0FFF74FFF00BF80BD00BF7C
:10083800280000200080004080B59EB000AF78609E
:1008480007F1640300221A605A609A60DA601A613C
:1008580007F1100354220021184602F015FB7B68AB
:100868001B681F4A934236D120233B610023BB6299
:1008780007F11003184601F0BDF90346002B01D01B
:10088800FFF722FF174BDB6D164A43F00103D365D0
:10089800144BDB6D03F00103FB60FB68114BDB6C51
:1008A800104A43F00103D3640E4BDB6C03F00103E1
:1008B800BB60BB680C237B660223BB660023FB6618
:1008C80000233B670C237B6707F1640319464FF04D
:1008D800904000F0D5F900BF7837BD4680BD00BF15
:1008E80000800040001002400D488546FFF748FF91
:1008F8000C480D490D4A002302E0D458C450043373
:10090800C4188C42F9D30A4A0A4C002301E0136048
:100918000432A242FBD302F0BFFAFFF765FEFEE7FE
:1009280000000220000000200C000020582F0008C2
:100938000C000020C0000020FEE780B582B000AFA8
:100948000023FB71032000F05BF9002000F00EF893
:100958000346002B02D00123FB7101E0FFF7BAFE2A
:10096800FB7918460837BD4680BD000080B584B0C5
:1009780000AF78600023FB73164B1B68002B22D056
:10098800154B1A68134B1B684FF47A71B1FBF3F3DC
:10099800B2FBF3F3184600F066F90346002B0FD1BB
:1009A8007B680F2B09D8002279684FF0FF3000F0E0
:1009B80032F90A4A7B68136007E00123FB7304E0FD
:1009C8000123FB7301E00123FB73FB7B18461037FF
:1009D800BD4680BD08000020000000200400002063
:1009E80080B400AF054B1A68054B1B681344034AD3
:1009F800136000BFBD465DF8047B7047BC00002053
:100A08000800002080B400AF034B1B681846BD46A1
:100A18005DF8047B704700BFBC00002080B584B03F
:100A280000AF7860FFF7EEFFB8607B68FB60FB689B
:100A3800B3F1FF3F04D0094B1B68FA681344FB600D
:100A480000BFFFF7DFFF0246BB68D31AFA689A4275
:100A5800F7D800BF00BF1037BD4680BD0800002092
:100A680080B485B000AF78607B6803F00703FB6053
:100A78000C4BDB68BB60BA684FF6FF031340BB60E2
:100A8800FB681A02BB68134343F0BF6343F40033A7
:100A9800BB60044ABB68D36000BF1437BD465DF82D
:100AA800047B704700ED00E080B400AF044BDB68C6
:100AB8001B0A03F007031846BD465DF8047B704720
:100AC80000ED00E080B483B000AF0346FB7197F9F6
:100AD8000730002B0BDBFB7903F01F02074997F95E
:100AE80007305B09012000FA02F241F8232000BF19
:100AF8000C37BD465DF8047B704700BF00E100E09D
:100B080080B483B000AF03463960FB7197F90730B2
:100B1800002B0ADB3B68DAB20C4997F9073012015F
:100B2800D2B20B4483F800230AE03B68DAB20849E2
:100B3800FB7903F00F03043B1201D2B20B441A767F
:100B480000BF0C37BD465DF8047B704700E100E04C
:100B580000ED00E080B489B000AFF860B9607A6059
:100B6800FB6803F00703FB61FB69C3F10703042B70
:100B780028BF0423BB61FB690433062B02D9FB6938
:100B8800033B00E000237B614FF0FF32BB6902FAB0
:100B980003F3DA43BB681A407B699A404FF0FF3190
:100BA8007B6901FA03F3D9437B680B40134318466A
:100BB8002437BD465DF8047B7047000080B582B0DD
:100BC80000AF78607B68013BB3F1807F01D30123DC
:100BD8000FE00A4A7B68013B53600F214FF0FF305A
:100BE800FFF78EFF054B00229A60044B07221A601C
:100BF800002318460837BD4680BD00BF10E000E05E
:100C080080B582B000AF78607868FFF729FF00BF31
:100C18000837BD4680BD80B586B000AF0346B960D1
:100C28007A60FB73FFF740FF78617A68B968786982
:100C3800FFF790FF024697F90F3011461846FFF765
:100C48005FFF00BF1837BD4680BD80B582B000AFDA
:100C58000346FB7197F907301846FFF733FF00BFCB
:100C68000837BD4680BD80B582B000AF786078682F
:100C7800FFF7A4FF034618460837BD4680BD0000AD
:100C880080B487B000AF7860396000237B615AE197
:100C98003B681A6801217B6901FA03F31340FB6082
:100CA800FB68002B00F04C813B685B6803F0030392
:100CB800012B05D03B685B6803F00303022B30D19E
:100CC8007B689B683B617B695B00032202FA03F344
:100CD800DB433A6913403B613B68DA687B695B0038
:100CE80002FA03F33A6913433B617B683A699A60F5
:100CF8007B685B683B6101227B6902FA03F3DB4393
:100D08003A6913403B613B685B681B0903F00102C9
:100D18007B6902FA03F33A6913433B617B683A69DA
:100D28005A603B685B6803F00303032B17D07B68AA
:100D3800DB683B617B695B00032202FA03F3DB4358
:100D48003A6913403B613B689A687B695B0002FA29
:100D580003F33A6913433B617B683A69DA603B689D
:100D68005B6803F00303022B23D17B69DA087B68F5
:100D7800083253F822303B617B6903F007039B007C
:100D88000F2202FA03F3DB433A6913403B613B68E5
:100D98001A697B6903F007039B0002FA03F33A69B7
:100DA80013433B617B69DA087B680832396943F889
:100DB80022107B681B683B617B695B00032202FA97
:100DC80003F3DB433A6913403B613B685B6803F01C
:100DD80003027B695B0002FA03F33A6913433B6140
:100DE8007B683A691A603B685B6803F44033002B00
:100DF80000F0A6805B4B1B6E5A4A43F00103136652
:100E0800584B1B6E03F00103BB60BB68564A7B69F5
:100E18009B08023352F823303B617B6903F00303DC
:100E28009B000F2202FA03F3DB433A6913403B614C
:100E38007B68B3F1904F1FD07B684C4A934219D01E
:100E48007B684B4A934213D07B684A4A93420DD041
:100E58007B68494A934207D07B68484A934201D14C
:100E680005230AE0062308E0042306E0032304E040
:100E7800022302E0012300E000237A6902F0030262
:100E8800920093403A6913433B6137497B699B0859
:100E980002333A6941F82320394B9B683B61FB6870
:100EA800DB433A6913403B613B685B6803F480139A
:100EB800002B03D03A69FB6813433B61304A3B6916
:100EC80093602F4BDB683B61FB68DB433A69134057
:100ED8003B613B685B6803F40013002B03D03A695D
:100EE800FB6813433B61264A3B69D360244B5B682C
:100EF8003B61FB68DB433A6913403B613B685B68D5
:100F080003F40033002B03D03A69FB6813433B61B9
:100F18001B4A3B6953601A4B1B683B61FB68DB4308
:100F28003A6913403B613B685B6803F48033002BEC
:100F380003D03A69FB6813433B61114A3B6913606C
:100F48007B6901337B613B681A687B6922FA03F38A
:100F5800002B7FF49DAE00BF00BF1C37BD465DF877
:100F6800047B704700100240000001400004004864
:100F780000080048000C0048001000480014004811
:100F88000004014080B483B000AF78600B467B80DA
:100F980013467B707B78002B03D07A887B689A6134
:100FA80002E07A887B689A6200BF0C37BD465DF81C
:100FB800047B704780B485B000AF78600B467B80B7
:100FC8007B685B69FB607A88FB6813401A04FB68DE
:100FD800D9437B880B401A437B689A6100BF14375A
:100FE800BD465DF8047B704780B582B000AF03460C
:100FF800FB80084B5A69FB881340002B06D0054A32
:10100800FB885361FB88184600F006F800BF0837D4
:10101800BD4680BD0004014080B483B000AF0346E4
:10102800FB8000BF0C37BD465DF8047B70470000AD
:1010380080B485B000AF78607B68002B41D14B4B02
:101048001B6803F4C063B3F5806F31D1474BD3F805
:101058008030464A23F48073C2F88030434B1B68C3
:1010680023F4C063414A43F400731360404B1B6888
:10107800322202FB03F33F4AA2FB03239B0C0133FA
:10108800FB6002E0FB68013BFB60384B5B6903F4E3
:101098008063B3F5806F02D1FB68002BF2D1334B2C
:1010A8005B6903F48063B3F5806F58D1032357E07D
:1010B8002E4BD3F880302D4A23F48073C2F8803049
:1010C8004DE07B68B3F5007F41D1284B1B6803F4E2
:1010D800C063B3F5806F31D1244BD3F88030234AF5
:1010E80043F48073C2F88030204B1B6823F4C0633C
:1010F8001E4A43F4007313601D4B1B68322202FB27
:1011080003F31C4AA2FB03239B0C0133FB6002E0A0
:10111800FB68013BFB60154B5B6903F48063B3F527
:10112800806F02D1FB68002BF2D1104B5B6903F48E
:101138008063B3F5806F12D1032311E00B4BD3F812
:1011480080300A4A43F48073C2F8803007E0074BC6
:101158001B6823F4C063054A43F4806313600023CB
:1011680018461437BD465DF8047B70470070004090
:101178000000002083DE1B4380B400AF054B9B6852
:10118800044A43F48043936000BFBD465DF8047B86
:10119800704700BF0070004080B588B000AF78602D
:1011A8007B68002B01D10123FEE27B681B6803F0FA
:1011B8000103002B75D0974B9B6803F00C03BB61B0
:1011C800944BDB6803F003037B61BB690C2B02D1F2
:1011D8007B69032B02D0BB69082B0BD18D4B1B6895
:1011E80003F40033002B5BD07B685B68002B57D17E
:1011F8000123D9E27B685B68B3F5803F06D1854B54
:101208001B68844A43F4803313601DE07B685B6885
:10121800B3F5A02F0CD17F4B1B687E4A43F4802383
:1012280013607C4B1B687B4A43F4803313600BE0EC
:10123800784B1B68774A23F480331360754B1B681F
:10124800744A23F4802313607B685B68002B13D0F7
:10125800FFF7D8FB386108E0FFF7D4FB02463B698B
:10126800D31A642B01D903239EE26A4B1B6803F44B
:101278000033002BF0D014E0FFF7C4FB386108E01E
:10128800FFF7C0FB02463B69D31A642B01D903233D
:101298008AE2604B1B6803F40033002BF0D100E0B6
:1012A80000BF7B681B6803F00203002B75D0594B05
:1012B8009B6803F00C03BB61564BDB6803F0030328
:1012C8007B61BB690C2B02D17B69022B02D0BB6905
:1012D800042B1FD14F4B1B6803F48063002B05D0F0
:1012E8007B68DB68002B01D101235DE2494B5B6819
:1012F80023F0FE427B681B691B06464913434B607B
:10130800454B1B681846FFF731FB0346002B43D0BB
:10131800012349E27B68DB68002B23D03D4B1B6827
:101328003C4A43F480731360FFF76CFB386108E0B4
:10133800FFF768FB02463B69D31A022B01D9032346
:1013480032E2344B1B6803F48063002BF0D0314B3E
:101358005B6823F0FE427B681B691B062D4913431B
:101368004B601AE02B4B1B682A4A23F480731360E6
:10137800FFF748FB386108E0FFF744FB02463B698A
:10138800D31A022B01D903230EE2224B1B6803F464
:101398008063002BF0D100E000BF7B681B6803F07E
:1013A8000803002B41D07B685B69002B1CD0194BCC
:1013B800D3F89430174A43F00103C2F89430FFF78A
:1013C80021FB386108E0FFF71DFB02463B69D31A91
:1013D800022B01D90323E7E10E4BD3F8943003F035
:1013E8000203002BEFD020E00A4BD3F89430094ACF
:1013F80023F00103C2F89430FFF704FB38610DE0D5
:10140800FFF700FB02463B69D31A022B06D90323D8
:10141800CAE100BF00100240040000208C4BD3F842
:10142800943003F00203002BEAD17B681B6803F0B9
:101438000403002B00F0A6800023FB77844B9B6DF0
:1014480003F08053002B01D1012300E00023002B7F
:101458000DD07F4B9B6D7E4A43F0805393657C4B48
:101468009B6D03F08053FB60FB680123FB77794B8E
:101478001B6803F48073002B18D1764B1B68754AE0
:1014880043F480731360FFF7BDFA386108E0FFF793
:10149800B9FA02463B69D31A022B01D9032383E127
:1014A8006C4B1B6803F48073002BF0D07B689B683F
:1014B800012B08D1664BD3F89030654A43F00103FD
:1014C800C2F8903024E07B689B68052B10D1604BF4
:1014D800D3F890305E4A43F00403C2F890305C4B76
:1014E800D3F890305A4A43F00103C2F890300FE025
:1014F800574BD3F89030564A23F00103C2F8903086
:10150800534BD3F89030524A23F00403C2F890307A
:101518007B689B68002B16D0FFF774FA38610AE0E5
:10152800FFF770FA02463B69D31A41F288329342B8
:1015380001D9032338E1464BD3F8903003F0020376
:10154800002BEDD015E0FFF75DFA38610AE0FFF7F0
:1015580059FA02463B69D31A41F28832934201D9BB
:10156800032321E13A4BD3F8903003F00203002B18
:10157800EDD1FB7F012B05D1354B9B6D344A23F010
:10158800805393657B681B6803F02003002B3CD0D5
:101598007B689B69002B1CD02D4BD3F898302C4AC4
:1015A80043F00103C2F89830FFF72CFA386108E0DD
:1015B800FFF728FA02463B69D31A022B01D9032305
:1015C800F2E0234BD3F8983003F00203002BEFD05E
:1015D8001BE01F4BD3F898301D4A23F00103C2F8D3
:1015E8009830FFF70FFA386108E0FFF70BFA024668
:1015F8003B69D31A022B01D90323D5E0144BD3F846
:10160800983003F00203002BEFD17B68DB69002BD5
:1016180000F0C9800E4B9B6803F00C030C2B00F004
:1016280083807B68DB69022B5ED1094B1B68084A03
:1016380023F080731360FFF7E5F938610CE0FFF7DA
:10164800E1F902463B69D31A022B05D90323ABE023
:101658000010024000700040554B1B6803F00073F7
:10166800002BECD1524BDA68524B13407A68116A5E
:101678007A68526A013A120111437A68926A120230
:1016880011437A68126B5208013A520511437A687D
:10169800526B5208013A520611437A68D26AD2064E
:1016A8000A4343491343CB60414B1B68404A43F00C
:1016B800807313603E4BDB683D4A43F08073D36010
:1016C800FFF7A0F9386108E0FFF79CF902463B698B
:1016D800D31A022B01D9032366E0354B1B6803F0AC
:1016E8000073002BF0D05EE0314B1B68304A23F0CA
:1016F80080731360FFF786F9386108E0FFF782F915
:1017080002463B69D31A022B01D903234CE0284B2C
:101718001B6803F00073002BF0D1254BDA682449CD
:10172800254B1340CB603EE07B68DB69012B01D180
:10173800012339E01E4BDB687B617B6903F0030200
:101748007B681B6A9A422CD17B6903F0F0027B68A4
:101758005B6A013B1B019A4223D17B6903F4FE4279
:101768007B689B6A1B029A421BD17B6903F0784213
:101778007B68DB6ADB069A4213D17B6903F4C002FB
:101788007B681B6B5B08013B5B059A4209D17B694F
:1017980003F0C0627B685B6B5B08013B5B069A42A7
:1017A80001D0012300E0002318462037BD4680BD44
:1017B800001002400C809F01FCFFEEFE80B586B051
:1017C80000AF7860396000237B617B68002B01D112
:1017D80001231EE1914B1B6803F00F033A689A42FC
:1017E80010D98E4B1B6823F00F028C493B681343BA
:1017F8000B608A4B1B6803F00F033A689A4201D0CA
:10180800012306E17B681B6803F00103002B73D0FA
:101818007B685B68032B29D1814B1B6803F000733D
:10182800002B01D10123F4E000F09EF938613B69F7
:101838007C4A93423FD97A4B9B6803F0F003002B14
:1018480009D07B681B6803F00203002B33D07B6848
:101858009B68002B2FD1724B9B6823F0F003704AD2
:1018680043F08003936080237B6124E07B685B689E
:10187800022B07D16A4B1B6803F40033002B09D1F4
:101888000123C6E0664B1B6803F48063002B01D17B
:101898000123BEE000F0CEF838613B69614A93420B
:1018A80009D95F4B9B6823F0F0035D4A43F080033E
:1018B800936080237B615A4B9B6823F003027B680B
:1018C8005B68574913438B60FFF79CF8F8600AE0A0
:1018D800FFF798F80246FB68D31A41F28832934220
:1018E80001D9032395E04E4B9B6803F00C027B68FB
:1018F8005B689B009A42EBD17B681B6803F002038C
:10190800002B23D07B681B6803F00403002B05D051
:10191800434B9B68424A43F4E06393607B681B68CF
:1019280003F00803002B07D03D4B9B6823F47C533E
:101938003B4A43F4E0639360394B9B6823F0F00221
:101948007B689B68364913438B6008E07B69802B72
:1019580005D1334B9B68324A23F0F00393602F4B39
:101968001B6803F00F033A689A421DD22B4B1B6881
:1019780023F00F0229493B6813430B60FFF742F835
:10198800F8600AE0FFF73EF80246FB68D31A41F216
:101998008832934201D903233BE0204B1B6803F0B4
:1019A8000F033A689A42EDD17B681B6803F0040381
:1019B800002B08D01A4B9B6823F4E0627B68DB6835
:1019C800174913438B607B681B6803F00803002BDF
:1019D80009D0134B9B6823F460527B681B69DB00BA
:1019E8000F4913438B6000F025F802460C4B9B68A7
:1019F8001B0903F00F030C49CB5C03F01F0322FA09
:101A080003F30A4A13600A4B1B681846FEF7AEFF39
:101A1800034618461837BD4680BD00BF0020024067
:101A28000010024000B4C404082F00080000002081
:101A38000400002080B487B000AF2C4B9B6803F0F3
:101A48000C03042B02D12A4B3B6147E0274B9B68D0
:101A580003F00C03082B02D1264B3B613EE0234BDD
:101A68009B6803F00C030C2B36D1204BDB6803F08A
:101A78000303FB601D4BDB681B0903F00F030133F5
:101A8800BB60FB68032B0CD11A4ABB68B2FBF3F3AB
:101A9800164AD268120A02F07F0202FB03F37B6146
:101AA8000CE0134ABB68B2FBF3F3104AD268120A7F
:101AB80002F07F0202FB03F37B6100BF0B4BDB6884
:101AC8005B0E03F0030301335B007B607A697B687C
:101AD800B2FBF3F33B6101E000233B613B6918462D
:101AE8001C37BD465DF8047B704700BF00100240FC
:101AF8000024F40000366E0180B400AF034B1B686D
:101B08001846BD465DF8047B704700BF0000002002
:101B180080B500AFFFF7F0FF0246064B9B681B0A33
:101B280003F007030449CB5C03F01F0322FA03F315
:101B3800184680BD00100240182F000880B500AF7D
:101B4800FFF7DAFF0246064B9B68DB0A03F0070340
:101B58000449CB5C03F01F0322FA03F3184680BD47
:101B680000100240182F000880B487B000AF1E4B49
:101B7800DB6803F003033B611B4BDB681B0903F0C5
:101B88000F030133FB603B69032B0CD1174AFB6839
:101B9800B2FBF3F3144AD268120A02F07F0202FB86
:101BA80003F37B610CE0124AFB68B2FBF3F30E4AC5
:101BB800D268120A02F07F0202FB03F37B6100BFC6
:101BC800094BDB685B0E03F0030301335B00BB606A
:101BD8007A69BB68B2FBF3F37B607B6818461C37F5
:101BE800BD465DF8047B70470010024000366E0168
:101BF8000024F40080B586B000AF78600023FB7441
:101C08000023BB747B681B6803F40023002B00F0DF
:101C1800988000237B74434B9B6D03F08053002B0B
:101C28000DD1404B9B6D3F4A43F0805393653D4B2C
:101C38009B6D03F08053BB60BB6801237B743A4BF8
:101C48001B68394A43F480731360FEF7DBFEF860C3
:101C580009E0FEF7D7FE0246FB68D31A022B02D929
:101C68000323FB7405E0304B1B6803F48073002BDF
:101C7800EFD0FB7C002B59D12A4BD3F8903003F4DA
:101C880040737B617B69002B1ED07B681B6D7A6972
:101C98009A4219D0234BD3F8903023F440737B61D8
:101CA800204BD3F890301F4A43F48033C2F8903069
:101CB8001C4BD3F890301B4A23F48033C2F8903081
:101CC800184A7B69C2F890307B6903F00103002B46
:101CD80016D0FEF797FEF8600BE0FEF793FE02467B
:101CE800FB68D31A41F28832934202D90323FB746A
:101CF80006E00C4BD3F8903003F00203002BECD035
:101D0800FB7C002B0BD1074BD3F8903023F44072A7
:101D18007B681B6D03491343C1F8903008E0FB7CD6
:101D2800BB7405E00010024000700040FB7CBB74EF
:101D38007B7C012B05D1A74B9B6DA64A23F08053D2
:101D480093657B681B6803F00103002B0AD0A14B45
:101D5800D3F8883023F003027B685B689D491343FE
:101D6800C1F888307B681B6803F00203002B0AD097
:101D7800984BD3F8883023F00C027B689B68954910
:101D88001343C1F888307B681B6803F00403002BF9
:101D98000AD0904BD3F8883023F030027B68DB6898
:101DA8008C491343C1F888307B681B6803F008032B
:101DB800002B0AD0874BD3F8883023F0C0027B6809
:101DC8001B6984491343C1F888307B681B6803F09A
:101DD8001003002B0AD07F4BD3F8883023F44072CD
:101DE8007B685B697B491343C1F888307B681B6853
:101DF80003F02003002B0AD0764BD3F8883023F465
:101E080040627B689B6973491343C1F888307B68DB
:101E18001B6803F04003002B0AD06E4BD3F88830C0
:101E280023F440527B68DB696A491343C1F8883060
:101E38007B681B6803F08003002B0AD0654BD3F83E
:101E4800883023F440427B681B6A62491343C1F817
:101E580088307B681B6803F48073002B0AD05D4BC5
:101E6800D3F8883023F440327B685B6A59491343BE
:101E7800C1F888307B681B6803F40033002B0AD054
:101E8800544BD3F89C3023F003027B689B6A51497A
:101E98001343C1F89C307B681B6803F40073002B64
:101EA8000AD04C4BD3F8883023F440227B68DB6A95
:101EB80048491343C1F888307B681B6803F4806382
:101EC800002B15D0434BD3F8883023F440127B689D
:101ED8001B6B40491343C1F888307B681B6BB3F513
:101EE800801F05D13B4BDB683A4A43F48013D3602B
:101EF8007B681B6803F40063002B15D0354BD3F8BF
:101F0800883023F440027B685B6B32491343C1F885
:101F180088307B685B6BB3F5800F05D12D4BDB6890
:101F28002C4A43F48013D3607B681B6803F4805306
:101F3800002B15D0274BD3F8883023F040727B68EC
:101F48009B6B24491343C1F888307B689B6BB3F1C2
:101F5800807F05D11F4BDB681E4A43F48013D36092
:101F68007B681B6803F40053002B15D0194BD3F87A
:101F7800883023F040627B68DB6B16491343C1F855
:101F880088307B68DB6BB3F1006F05D1114BDB68E0
:101F9800104A43F48013D3607B681B6803F48043C2
:101FA800002B19D00B4BD3F8883023F040627B68A4
:101FB8001B6C08491343C1F888307B681B6CB3F16C
:101FC800006F09D1034BDB68024A43F48013D360E6
:101FD80002E000BF001002407B681B6803F4004366
:101FE800002B15D0294BD3F8883023F040527B685A
:101FF8005B6C26491343C1F888307B685B6CB3F18E
:10200800805F05D1214BDB68204A43F48033D360DD
:102018007B681B6803F48033002B15D01B4BD3F867
:10202800883023F040427B689B6C18491343C1F801
:1020380088307B689B6CB3F1804F05D1134BDB680C
:10204800124A43F48033D3607B681B6803F480230F
:10205800002B15D00D4BD3F89C3023F440127B682D
:10206800DB6C0A491343C1F89C307B68DB6CB3F521
:10207800001F05D1054BDB68044A43F48013D36085
:10208800BB7C18461837BD4680BD00BF0010024013
:1020980080B582B000AF78607B68002B01D1012346
:1020A80042E07B68D3F88830002B06D17B68002299
:1020B80083F884207868FEF7BFFB7B682422C3F886
:1020C80088207B681B681A687B681B6822F00102FD
:1020D8001A607B689B6A002B02D0786800F0B2FB1C
:1020E800786800F0B3F80346012B01D101231BE007
:1020F8007B681B685A687B681B6822F490425A60A8
:102108007B681B689A687B681B6822F02A029A60C1
:102118007B681B681A687B681B6842F001021A60BA
:10212800786800F031FC034618460837BD4680BD84
:1021380080B58AB002AFF860B9603B601346FB8097
:10214800FB68D3F88830202B7BD1BB68002B02D0EA
:10215800FB88002B01D1012374E0FB680022C3F83F
:102168009020FB682122C3F88820FEF74BFC786199
:10217800FB68FA88A3F85420FB68FA88A3F856206D
:10218800FB689B68B3F5805F08D1FB681B69002B6F
:1021980004D10023FB61BB68BB6103E0BB68FB6142
:1021A8000023BB6130E03B6800937B6900228021FB
:1021B800F86800F093FC0346002B05D0FB6820224A
:1021C800C3F8882003233DE0FB69002B0BD1BB69D2
:1021D8001B881A46FB681B68C2F308029A62BB692F
:1021E8000233BB6107E0FB691A78FB681B689A62D7
:1021F800FB690133FB61FB68B3F856309BB2013BC6
:102208009AB2FB68A3F85620FB68B3F856309BB225
:10221800002BC8D13B6800937B6900224021F868F5
:1022280000F05CFC0346002B05D0FB682022C3F8B5
:102238008820032306E0FB682022C3F888200023B7
:1022480000E0022318462037BD4680BD2DE9B04F77
:102258008CB000AF7861002387F82A307B699A68D0
:102268007B691B691A437B695B691A437B69DB6974
:102278001343FB627B691B681A68AA4B13407A698F
:102288001268F96A0B4313607B691B685B6823F467
:1022980040517B69DA687B691B680A435A607B692D
:1022A8009B69FB627B691B689F4A934204D07B69E8
:1022B8001B6AFA6A1343FB627B691B689B6823F0FD
:1022C8006E4323F430637A691268F96A0B439360AA
:1022D8007B691B68DB6A23F00F017B695A6A7B699B
:1022E8001B680A43DA627B691B68904A934225D1CE
:1022F8008F4BD3F8883003F00303032B1AD801A2BD
:1023080052F823F01D2300082D2300082523000878
:1023180035230008012387F82B3016E1022387F8BC
:102328002B3012E1042387F82B300EE1082387F8BD
:102338002B300AE1102387F82B3006E17B691B68F4
:102348007C4A934238D17A4BD3F8883003F00C0397
:102358000C2B2DD801A252F823F000BF99230008B6
:10236800B9230008B9230008B9230008A9230008E5
:10237800B9230008B9230008B9230008A1230008DD
:10238800B9230008B9230008B9230008B1230008BD
:10239800002387F82B30D8E0022387F82B30D4E0CD
:1023A800042387F82B30D0E0082387F82B30CCE0C3
:1023B800102387F82B30C8E07B691B685E4A93427C
:1023C80025D15B4BD3F8883003F03003302B16D07F
:1023D800302B18D8202B0AD0202B14D8002B02D051
:1023E800102B08D00FE0002387F82B30ADE0022334
:1023F80087F82B30A9E0042387F82B30A5E00823C1
:1024080087F82B30A1E0102387F82B309DE07B69FB
:102418001B684A4A934225D1454BD3F8883003F0CC
:10242800C003C02B16D0C02B18D8802B0AD0802B05
:1024380014D8002B02D0402B08D00FE0002387F8D7
:102448002B3082E0022387F82B307EE0042387F8C4
:102458002B307AE0082387F82B3076E0102387F8B2
:102468002B3072E07B691B68354A93422AD1304B86
:10247800D3F8883003F44073B3F5407F1AD0B3F52E
:10248800407F1BD8B3F5007F0CD0B3F5007F15D87B
:10249800002B03D0B3F5807F08D00FE0002387F826
:1024A8002B3052E0022387F82B304EE0042387F8C4
:1024B8002B304AE0082387F82B3046E0102387F8B2
:1024C8002B3042E07B691B68174A93423AD1184B7C
:1024D800D3F8883003F44063B3F5406F1AD0B3F5EE
:1024E800406F1BD8B3F5006F0CD0B3F5006F15D84B
:1024F800002B03D0B3F5806F08D00FE0002387F8D6
:102508002B3022E0022387F82B301EE0042387F8C3
:102518002B301AE0082387F82B3016E0102387F8B1
:102528002B3012E0F369FFCF0080004000380140F3
:10253800001002400044004000480040004C0040A9
:1025480000500040102387F82B307B691B68AE4A87
:10255800934240F0978097F82B30082B23D801A29C
:1025680052F823F091250008AF25000899250008A6
:10257800AF2500089F250008AF250008AF250008F3
:10258800AF250008A7250008FFF7C2FA786210E017
:102598009E4B7B620DE0FFF74DFA786209E04FF43D
:1025A80000437B6205E000237B62012387F82A3021
:1025B80000BF7B6A002B00F030817B695B6A944A1C
:1025C80032F813301A467B6AB3FBF2F3BB617B69BE
:1025D8005A6813465B001344BA699A4205D37B696B
:1025E8005B681B03BA699A4203D9012387F82A302A
:1025F80013E17B6A0022BB60FA607B695B6A844AEC
:1026080032F813309BB200223B607A60D7E900238E
:10261800D7E90201FDF7FCFD02460B4610461946B4
:102628004FF000024FF000030B0243EA106302026E
:1026380079694968490800200C46054612EB0408E8
:1026480043EB05097B695B6800229A46934652462C
:102658005B4640464946FDF7DBFD02460B461346FE
:102668003B623B6AB3F5407F08D33B6AB3F5801FF2
:1026780004D27B691B683A6ADA60CEE0012387F8E6
:102688002A30CAE07B69DB69B3F5004F66D197F859
:102698002B30082B27D801A252F823F0C9260008AE
:1026A800D1260008D9260008EF260008DF260008F2
:1026B800EF260008EF260008EF260008E7260008A6
:1026C800FFF726FA786214E0FFF738FA786210E02C
:1026D8004E4B7B620DE0FFF7ADF9786209E04FF4ED
:1026E80000437B6205E000237B62012387F82A30E0
:1026F80000BF7B6A002B00F090807B695B6A444ACC
:1027080032F813301A467B6AB3FBF2F35A007B693E
:102718005B685B081A447B695B68B2FBF3F33B6256
:102728003B6A0F2B16D93B6AB3F5803F12D23B6A3E
:102738009BB223F00F03FB833B6A5B089BB203F059
:1027480007039AB2FB8B1343FB837B691B68FA8BE5
:10275800DA6062E0012387F82A305EE097F82B30D0
:10276800082B28D801A252F823F000BF99270008A7
:10277800A1270008A9270008BF270008AF270008DD
:10278800BF270008BF270008BF270008B727000891
:10279800FFF7BEF9786214E0FFF7D0F9786210E02D
:1027A8001A4B7B620DE0FFF745F9786209E04FF4B8
:1027B80000437B6205E000237B62012387F82A300F
:1027C80000BF7B6A002B28D07B695B6A104A32F80D
:1027D80013301A467B6AB3FBF2F27B695B685B08CD
:1027E8001A447B695B68B2FBF3F33B623B6A0F2BCD
:1027F80010D93B6AB3F5803F0CD23B6A9AB27B6929
:102808001B68DA6009E000BF008000400024F40083
:10281800202F0008012387F82A307B690122A3F8BA
:102828006A207B690122A3F868207B6900225A6725
:102838007B6900229A6797F82A3018463037BD46D8
:10284800BDE8B08F80B483B000AF78607B689B6AC6
:1028580003F00803002B0AD07B681B685B6823F42D
:1028680000417B689A6B7B681B680A435A607B68E7
:102878009B6A03F00103002B0AD07B681B685B6826
:1028880023F400317B68DA6A7B681B680A435A6064
:102898007B689B6A03F00203002B0AD07B681B68E5
:1028A8005B6823F480317B681A6B7B681B680A437A
:1028B8005A607B689B6A03F00403002B0AD07B688C
:1028C8001B685B6823F480217B685A6B7B681B68F4
:1028D8000A435A607B689B6A03F01003002B0AD0F6
:1028E8007B681B689B6823F480517B68DA6B7B6884
:1028F8001B680A439A607B689B6A03F02003002BDD
:102908000AD07B681B689B6823F400517B681A6CAB
:102918007B681B680A439A607B689B6A03F04003E4
:10292800002B1AD07B681B685B6823F480117B68D6
:102938005A6C7B681B680A435A607B685B6CB3F50A
:10294800801F0AD17B681B685B6823F4C0017B6821
:102958009A6C7B681B680A435A607B689B6A03F021
:102968008003002B0AD07B681B685B6823F4002176
:102978007B68DA6C7B681B680A435A6000BF0C37B7
:10298800BD465DF8047B704780B598B002AF7860AB
:102998007B680022C3F89020FEF734F878657B68DE
:1029A8001B681B6803F00803082B2FD16FF07E43C8
:1029B80000937B6D00224FF40011786800F08EF8C8
:1029C8000346002B22D07B681B68BB63BB6B53E8B4
:1029D800003F7B637B6B23F080033B657B681B6850
:1029E8001A463B6D7B643A64396C7A6C41E8002383
:1029F800FB63FB6B002BE6D17B682022C3F88820A1
:102A08007B68002283F88420032363E07B681B68CB
:102A18001B6803F00403042B49D16FF07E43009335
:102A28007B6D00224FF48001786800F057F8034668
:102A3800002B3CD07B681B687B627B6A53E8003FB5
:102A48003B623B6A23F49073FB647B681B681A46FD
:102A5800FB6C3B63FA62F96A3A6B41E80023BB629C
:102A6800BB6A002BE6D17B681B6808333B613B6976
:102A780053E8003FFB60FB6823F00103BB647B68FD
:102A88001B680833BA6CFA61BB61B969FA6941E835
:102A980000237B617B69002BE5D17B682022C3F88A
:102AA8008C207B68002283F88420032312E07B6853
:102AB8002022C3F888207B682022C3F88C207B68FA
:102AC8000022DA667B6800221A677B68002283F896
:102AD8008420002318465837BD4680BD80B584B091
:102AE80000AFF860B9603B601346FB714FE0BB690B
:102AF800B3F1FF3F4BD0FDF785FF02463B68D31A81
:102B0800BA699A4202D3BB69002B01D103234EE074
:102B1800FB681B681B6803F00403002B37D0BB68F5
:102B2800802B34D0BB68402B31D0FB681B68DB6935
:102B380003F00803082B10D1FB681B6808221A62EF
:102B4800F86800F038F8FB680822C3F89020FB68A2
:102B5800002283F88420012329E0FB681B68DB69D5
:102B680003F40063B3F5006F11D1FB681B684FF4E1
:102B780000621A62F86800F01EF8FB682022C3F8A9
:102B88009020FB68002283F8842003230FE0FB6871
:102B98001B68DA69BB681340BA689A420CBF012304
:102BA8000023DBB21A46FB799A42A0D000231846CC
:102BB8001037BD4680BD80B495B000AF78607B68A3
:102BC8001B687B637B6B53E8003F3B633B6B23F4E1
:102BD8009073FB647B681B681A46FB6C3B64FA6362
:102BE800F96B3A6C41E80023BB63BB6B002BE6D161
:102BF8007B681B6808333B623B6A53E8003FFB6114
:102C0800FB6923F0805323F00103BB647B681B68D6
:102C18000833BA6CFA62BB62B96AFA6A41E80023FF
:102C28007B627B6A002BE3D17B68DB6E012B18D1BA
:102C38007B681B68FB60FB6853E8003FBB60BB68B0
:102C480023F010037B647B681B681A467B6CBB61AE
:102C58007A617969BA6941E800233B613B69002BD5
:102C6800E6D17B682022C3F88C207B680022DA66D4
:102C78007B6800225A6700BF5437BD465DF8047B65
:102C8800704780B485B000AF78607B6893F8843073
:102C9800012B01D1022327E07B68012283F88420DD
:102CA8007B682422C3F888207B681B681B68FB604C
:102CB8007B681B681A687B681B6822F001021A602F
:102CC800FB6823F00053FB607B6800225A667B6830
:102CD8001B68FA681A607B682022C3F888207B6822
:102CE800002283F88420002318461437BD465DF877
:102CF800047B704780B584B000AF786039607B682A
:102D080093F88430012B01D102232DE07B68012246
:102D180083F884207B682422C3F888207B681B689A
:102D28001B68FB607B681B681A687B681B6822F05D
:102D380001021A607B681B689B6823F060417B680E
:102D48001B683A680A439A60786800F04FF87B6815
:102D58001B68FA681A607B682022C3F888207B68A1
:102D6800002283F88420002318461037BD4680BD12
:102D780080B584B000AF786039607B6893F88430A0
:102D8800012B01D102232DE07B68012283F88420E6
:102D98007B682422C3F888207B681B681B68FB605B
:102DA8007B681B681A687B681B6822F001021A603E
:102DB8007B681B689B6823F060617B681B683A68C6
:102DC8000A439A60786800F011F87B681B68FA6813
:102DD8001A607B682022C3F888207B68002283F869
:102DE8008420002318461037BD4680BD80B485B0C6
:102DF80000AF78607B685B6E002B08D17B6801228E
:102E0800A3F86A207B680122A3F8682031E0082330
:102E1800FB730823BB737B681B689B685B0EDBB284
:102E280003F007037B737B681B689B685B0FDBB24F
:102E380003F007033B73BB7B3A7B11498A5C02FBB7
:102E480003F33A7B0F498A5C93FBF2F39AB27B68EF
:102E5800A3F86A20FB7B7A7B09498A5C02FB03F3AF
:102E68007A7B08498A5C93FBF2F39AB27B68A3F8F1
:102E7800682000BF1437BD465DF8047B704700BF6B
:102E8800382F0008402F000802440346934200D11F
:102E9800704703F8011BF9E770B50D4D0D4C641B25
:102EA800A4100026A64209D10B4D0C4C00F018F8CE
:102EB800641BA4100026A64205D170BD55F8043B3A
:102EC80098470136EEE755F8043B98470136F2E794
:102ED800502F0008502F0008502F0008542F0008CA
:102EE800F8B500BFF8BC08BC9E467047F8B500BFEF
:082EF800F8BC08BC9E467047BF
:102F00004650282A363C0000000000000000000067
:102F1000010203040607080900000000010203047F
:102F2000010002000400060008000A000C00100066
:102F300020004000800000010101010307010000A2
:082F400008040204080101016C
:082F480000D3FF7F010000002F
:042F5000FD01000877
:042F5400D901000897
:0C2F58000024F400100000000100000044
:04000005080008F1F6
:00000001FF
